:020000040800F2
:1000000000500020CD060008110700081107000865
:100010001107000811070008110700080000000080
:1000200000000000000000000000000011070008B0
:100030001107000800000000110700081107000860
:100040001107000811070008110700081107000830
:100050001107000811070008110700081107000820
:100060001107000811070008110700081107000810
:100070001107000811070008110700081107000800
:1000800011070008110700081107000811070008F0
:1000900011070008110700081107000811070008E0
:1000A00011070008110700081107000811070008D0
:1000B00011070008110700081107000811070008C0
:1000C00011070008110700081107000811070008B0
:1000D000110700088D01000811070008110700082A
:1000E00011070008110700081107000800000000B0
:1000F0000000000000000000000000000000000000
:0C01000000000000000000005FF808F1A3
:10010C0010B5012186B044F2040000F013FA184B2C
:10011C0069461848009300F069F94FF48062042393
:10012C0069461448ADF800208DF803304FF4E134E3
:10013C0000F05CF900234FF4402202A90E48CDE9EF
:10014C000243ADF81430049200F000FA012240F2A0
:10015C002551094800F064FA084B01A8019300F0FE
:10016C0017F90121044800F04DFA06B010BD00BF8C
:10017C00000203180008014000380140250000016E
:10018C00F8B540F22551394800F072FA00B9F8BDC3
:10019C00364800F063FA364CC0B2212823780CD0D4
:1001AC007E2B03D8334A591C2170D05440F2255170
:1001BC00BDE8F8402D4800F07BBA002BF6D00022A9
:1001CC0048252C4E2C4FF2548021284800F04AFA36
:1001DC000028F9D02946254800F03CFA17F8015FB1
:1001EC00002DF1D14E25254F8021204800F03AFA00
:1001FC000028F9D029461D4800F02CFA17F8015FA9
:10020C00002DF1D13A251E4F8021184800F02AFA12
:10021C000028F9D02946154800F01CFA17F8015FA0
:10022C00002DF1D1357875B1124E80210F4800F0B8
:10023C0019FA0028F9D029460C4800F00BFA16F8E8
:10024C00015F002DF1D10A250E4E8021074800F0E8
:10025C0009FA0028F9D02946044800F0FBF916F8F1
:10026C00015F002DF1D12570A0E700BF00380140DF
:10027C0000000020040000201407000818070008E4
:10028C001C0700082007000808B5FFF739FFFEE738
:10029C0010B400204FF41F04394A83B01168394B55
:1002AC0041F00101116051680B405360136823F059
:1002BC00847323F480331360136823F48023136056
:1002CC00536823F4FE03536094600090019013680C
:1002DC0043F48033136003E0009BB3F5A06F09D0A7
:1002EC00136803F400330193009B01330093019BCB
:1002FC00002BF1D0224B1B6813F4003318BF0123E1
:10030C000193019B012B06D04FF000621E4B9A60AB
:10031C0003B010BC70471D4A194B116841F0100115
:10032C001160116821F007011160116841F00201A0
:10033C0011605A685A605A685A605A6842F480626E
:10034C005A605A6822F47C125A605A6842F4E812D5
:10035C005A601A6842F080721A601A689201FCD5D1
:10036C005968074A21F003015960596841F00201AC
:10037C005960536803F00C03082BFAD1C4E700BF93
:10038C00001002400000FFF800ED00E000200240E9
:10039C0030B501240178C37801F01F024FEA511CDB
:1003AC009440C3B10F4B0F25DA6890F801E0D243AB
:1003BC008378C2F30222D540C2F104022B400EFA1C
:1003CC0002F2094813431B010144DBB281F80033EC
:1003DC0040F82C4030BD044B0CF1200C43F82C4061
:1003EC0030BD00BF00ED00E000E100E02DE9F04180
:1003FC0091F803C01CF0100F18BF8B7809880CF013
:10040C000F0518BF1D43CBB20BB3002301244FF0D3
:10041C000F08066802E00133082B17D004FA03F228
:10042C0032EA010EF7D1BCF1280F38D0BCF1480FDD
:10043C0000D102619A0008FA02F7013326EA070696
:10044C0005FA02F2082B46EA0206E7D10660FF29FC
:10045C0023D900234FF0010E0F27446802E001332B
:10046C00082B19D003F108020EFA02F232EA010647
:10047C00F5D1BCF1280F14D0BCF1480F08BF0261B4
:10048C009A0007FA02F6013324EA060405FA02F28E
:10049C00082B44EA0204E5D14460BDE8F0814261D6
:1004AC00C8E74261ECE700BF1D4A10B4536803F083
:1004BC000C03082B20D01B4B194A036051681A4CB3
:1004CC00C1F30311615CCB4043605168C1F302215D
:1004DC00615C23FA01F181605168C1F3C221645C53
:1004EC001249E340C360526810BCC2F381328A5C8B
:1004FC00B3FBF2F30361704753685168C3F3834352
:10050C00C90303F1020306D55268920303D4054ACA
:10051C0002FB03F3D0E7064A02FB03F3CCE700BF70
:10052C000010024000127A00280700082407000877
:10053C0000093D00044A936911B10343936170476C
:10054C0023EA0003936170470010024030B5044663
:10055C00238ACA889BB223F44053134387B0238267
:10056C00A3898A8823F4B05323F00C031B041B0CBF
:10057C0013430A8901A813434A890D4613439BB2BE
:10058C00A381A38A8A899BB223F440731343A38269
:10059C00FFF78AFFDDE9033118482A68844208BF57
:1005AC000B46A18903EB830308044CBF5200920055
:1005BC0003EB8303B3FBF2F364251148A0FB032187
:1005CC00490905FB11330A01A18909040AD41B014D
:1005DC003233A0FB0303C3F3431313439BB22381B6
:1005EC0007B030BDDB003233A0FB0303C3F342136F
:1005FC0013439BB2238107B030BD00BF00380140CC
:10060C001F85EB51838921B19BB243F40053838145
:10061C00704723F400531B041B0C8381704700BFED
:10062C00012301F01F0CC1F34211012903FA0CF351
:10063C000DD002290CBF103014301AB102681343CC
:10064C0003607047026822EA0303036070470C30B2
:10065C00F3E700BFC1F30801818070478088C0F3C5
:10066C000800704703881940081E18BF0120704706
:10067C000123C1F3421201F01F0C012A03FA0CF3FF
:10068C0012D0022A0CBF028A828A92B213400288CC
:10069C0092B23BB10123090A8B401A40101E18BFBD
:1006AC000120704718467047828992B21340EEE7DA
:1006BC000123090A8B40DB439BB20380704700BFC8
:1006CC00002103E00A4B5B584350043109480A4BA4
:1006DC0042189A42F6D3094A02E0002342F8043B3E
:1006EC00074B9A42F9D3FFF7D3FDFFF7CDFD7047C7
:1006FC003807000800000020000000200000002047
:08070C0084000020FEE700005C
:1007140048544E004E3033003A2000000A0D0000C9
:10072400020406080000000001020304010203049D
:0407340006070809A3
:04000005080006CD1C
:00000001FF
